:020000040800F2
:1000000088310020E1000008DF5B00089B570008F2
:1000100000000000000000000000000000000000E0
:100020000000000000000000000000002B78000825
:100030000000000000000000897500082D7800080D
:100040000D0100080D0100080D0100080D01000858
:100050000D0100080D0100080D0100089957000866
:10006000000000000D010008615700080D010008A4
:100070000D0100080D0100080D010008000000003E
:100080000D010008F57B0008000000000D010008CC
:10009000FD790008917B00080D0100080D010008A2
:1000A0000D0100080D0100080D0100081D7C00086D
:1000B0000D0100080000000000000000000000002A
:1000C0000D010008000000000D01000803488546EE
:1000D00000F0F0FF0048004795AC00088831002090
:1000E0000B4802680B480240120C92020A4940F287
:1000F000000001C1121F002AFBD1084880470848B0
:100100000047FEE7FEE7FEE7FEE7FEE7FEE700004A
:10011000E0F7FF1F0000FFFF00000020317800081B
:10012000CD00000801464139192900D82030704718
:100130000549064A08685043054A80180860400887
:100140007047014908607047000000206D4EC641AD
:100150003930000003460B439B0703D009E008C970
:10016000121F08C0042AFAD203E00B780370401C67
:10017000491C521EF9D27047D2B201E00270401CF5
:10018000491EFBD270470022F6E710B513460A4617
:1001900004461946FFF7F0FF204610BD30B505466E
:1001A0002A460B4610781C78521C5B1C002801D094
:1001B000A042F7D0002C03D0002802D06D1CEFE73E
:1001C000284630BD10B5044605E00B780370401C8E
:1001D000002B00D0491C521EF7D2204610BDCAB2D7
:1001E000401E4178401C8A4202D00029F9D10020EB
:1001F0007047421C0178401C0029FBD1801A7047CF
:1002000010B5002200E0521C835C8C5CA34201D13B
:10021000002BF8D1D8B2E1B2401A10BD30B5044677
:100220000020034600E05B1C934203D2E05CCD5CFF
:10023000401BF8D030BD03460A780270401C491CB0
:10024000002AF9D11846704730B50546002003460C
:1002500000E05B1C934205D2EC5CC85C201A01D123
:10026000002CF6D130BD10B508E00A4602E0A342EA
:1002700008D0521C1378002BF9D1401C0478002CB4
:10028000F3D1002010BD00000FB400B58DB009906F
:100290000B9010A900200091C0430A9000200C9000
:1002A00006480690064807906A4609A80F9900F08C
:1002B000C7FC0DB008BC04B018470000610C000872
:1002C000810C0008FFB5087889B01546FF2805D0D5
:1002D000491C2D2804D00022002407E000240BE054
:1002E0000122F9E70A235C430419491C0878FF2816
:1002F000F8D1002A00D06442002004902A780146F8
:100300002D2A01D02B2A0FD16D1C2D2A02D00022BC
:10031000049209E00122FBE700260A2233466D1C05
:1003200000F03CFC381871412F78FF2FF4D10C9A63
:10033000A218069202460A4304D0FF23069A91337C
:10034000DA4205DA002109980A4606C00DB0F0BD70
:100350000024B74AB54D2646079200F04DFE0290A4
:1003600006980391002801DA474200E00746390564
:100370000020AF4A001C51410191009012E0F807A3
:1003800007D022462B463046079900F0E9FA064688
:10039000079122462B461046194600F0E1FA044622
:1003A0000D467F10002FEAD10698019B0028009A85
:1003B0000399029806DA00F0A7FD3246079B00F089
:1003C000A3FD05E000F0CCFA3246079B00F0C8FA26
:1003D000049A002A02D00122D2075140099A03C28E
:1003E000B4E7FFB591B0002009900025ED432E2021
:1003F0009E685C681F460190B9696D1C1298884719
:100400000090396A88470028F6D10098401C0AD02D
:100410000D20C0018443002E12DD00982B2809D046
:100420002D280DD103E00020C04315B0F0BD012000
:1004300080020443B9696D1C12988847761E0090AB
:1004400003A9600501D52D2000E02B206A4610731A
:10045000491C0CA80F9102900AE0B9696D1C129812
:10046000884700900120400204431398761E0560DF
:10047000002E02DD00983028EFD0019900988842C4
:1004800045D18020044308E00998401E09900120CE
:10049000400204431399681C0860B9696D1C761EFC
:1004A0001298884700903028EED030E001998842B9
:1004B00005D1200603D480200443761E1DE0009859
:1004C0000DF0A4FF002825D0012149020C4300981B
:1004D00007AA0F9903323038761E914208D208706D
:1004E0000F98401C0F90200607D50998401E03E086
:1004F000200602D40998401C0990A00502D5139942
:10050000681C0860B9696D1C129888470090002E1D
:10051000CCDC59E0002E57DD0098652801D0452835
:1005200052D1A00550D5032000028443B9696D1C47
:10053000761E129888470090002E0CDD2B2804D0E0
:100540002D2808D1FF2001300443B9696D1C129891
:100550008847761E0090E00501D52D2100E02B2173
:10056000029801700298401C0290019025E0012041
:10057000400204430EA902980131761E88420ED231
:100580000098029930380006000E087003D10299D5
:10059000019881420AD90298401C029006E0E005C9
:1005A00001D5244801E0234840420990B9696D1CF7
:1005B00012988847009013980560002E04DD00987B
:1005C0000DF024FF0028D2D1F969129888470F99BD
:1005D000FF200870029903AA087000200A900B906F
:1005E0000CA90AA8099BFFF76DFEA00502D4012003
:1005F000C0431AE72420044209D0E00713D1386829
:100600000B9A0A99031D3B60006806C00BE00B992A
:100610000A9800F033FD0146E00704D13868021D56
:100620003A60006801602846FFE6000000001440C0
:100630000000F03FF1D8FFFF70B506460DF0C2FD97
:10064000046805460A220021304600F085FB2C6034
:1006500070BDF8B502464A40D40F42004B00520824
:100660005B089A4202D20246084611464A0023D04D
:10067000C30D4A00DDB2120EAD1A202D35DA490243
:100680000126490AF6058A19002C00D05242202181
:100690004F1B1146B9402A411018C20D9A4221D071
:1006A000002C17D0012D08DCDA05801AD20F801932
:1006B000D207DBB200F090FBF8BDDA05801A012307
:1006C00040001B06C01880185A428018CA0F1043F9
:1006D000490007E04908C2071143DA05801A80196A
:1006E0004008801800F070FBF8BD61000122511A2B
:1006F000001BF7E70122D2075140AAE70122D207E7
:100700005040A6E7024670B54A40D30FDB074000D1
:100710002DD04A002AD0010E140E0002120209192F
:10072000400A520A8418E50104465443000A120A9A
:100730002E045043A4194219200CC543AA18120CC8
:100740000125AD03521C521912047F39240400D034
:10075000521C104301D44000491EC2B20C06C0090D
:100760002018401C4008802A02D003E0002070BD01
:1007700040084000002900DA0020184370BD70B521
:1007800002464A40D50F40004A00ED074008520893
:10079000002814D0002A12D0C40DD30D410201202C
:1007A000C0055202490A520AE41A091812187D3487
:1007B000914201D3641C00E04900002C01DA0020C2
:1007C00070BD0023914201D3891A034340084900B8
:1007D0000028F7D100290AD0914202D10121C9078E
:1007E00005E0914201D2012101E00121C943E00568
:1007F000C018401900F0E8FA70BD0000F0B50746D7
:100800000846584087B0C00F049048000E46590073
:1008100040084908BC1A884105D2384631461E4670
:1008200017460B4602465800400810434CD0300D86
:10083000039040055900400D490D0590401A029063
:10084000402872DA18030121000B090508430190C2
:1008500004980092002805D0019952420020884156
:1008600000920190029840210A1A0199009800F024
:10087000ADF905460C466B4607CB00F0C8F9C01928
:100880007141039A0E0D0023D71756401A467A403D
:10089000164344D0049A002A2DD0029A012A039AC2
:1008A00015DC1205C01A914101263605001C714164
:1008B000D20F059ED2070093019202962A46234644
:1008C00000F0D0FA07B0F0BD38463146FAE7160519
:1008D000224A0F46B218C01AB74101210905001C6F
:1008E0004F4100187F41114618187941E20F10431B
:1008F0006D19644113E0E2076D0815436408C207EF
:100900001443039A01261205C01A91413605001CB2
:100910007141CE07400830434908C01851412A466A
:10092000234600F092FACDE7FFE704980122400049
:10093000C117121A00238B4104983146C417381A84
:10094000A141EEE730B40124E407634030BC55E731
:1009500030B40124E407614030BC4FE70000E0FF01
:10096000F0B51FB488B00B99099800244840099944
:10097000C00F490049080991C0070B990090490030
:1009800049080B9109990898A64608431CD00B9971
:100990000A98084318D0099801244000420D4800E5
:1009A000410D099824050003000B204309900B9882
:1009B0000003000B20430B9050181C4940180022E4
:1009C00001901446104605E0002001460DB0F0BD30
:1009D000032801DA034600E003239C46C11A0AAE4D
:1009E0000AE05F0008ADED5B4F00F75B7D43002739
:1009F000AA187C41491C5B1E6145F2DD410004AB35
:100A00005A522104120C0A43240C401C0828DFDB34
:100A1000019802900099704601910090059B049AFC
:100A20000799069800F01EFAD0E700000DFCFFFFC2
:100A300010B5002904DB0C460121C9074042A14141
:100A4000002B04DB1C460123DB075242A341801A22
:100A5000994101D3012010BD002010BD10B500291F
:100A600004DB0C460121C9074042A141002B04DBF5
:100A70001C460123DB075242A341101A8B4101D3CC
:100A8000012010BD002010BD10B5002904DB0C466C
:100A90000121C9074042A141002B04DB1C46012370
:100AA000DB075242A341801A994101D2012010BDB7
:100AB000002010BD10B500229623114600F08CF9DD
:100AC00010BDC20F410040020123400ADB05D207DE
:100AD000090EC0187F2901DA00207047962903DC2F
:100AE0009623591AC84001E096398840002AF4D06C
:100AF0004042704770B5CD0F4A0009030123090B2E
:100B00001B0519430B4BED070024520D9A4201DAE5
:100B1000002070BD074B34339A4203DC9A1A00F070
:100B200065F802E00449511888402C43F1D0404256
:100B300070BD0000FF030000CDFBFFFFF0B51FB448
:100B40000646002082B005464024019100901BE03B
:100B5000019922460F46304600F048F8049A059B5A
:100B6000801A994110D310461946224600F02EF8FB
:100B7000361A8F410197224601200021009F00F084
:100B800025F838184D4100902046641E0028DFDC0F
:100B9000019B00982946324607B0F0BD30B543436B
:100BA00051435C18010C130C0D465D432C1980B2A7
:100BB00092B20546554351430A0C09044D1962414E
:100BC0005843010C00044019514130BD10B5202A92
:100BD00004DB0146203A9140002010BD91402023C3
:100BE0009C1A0346E3401943904010BD10B5202ADB
:100BF00004DB0846203AD040002110BD0B46D3400C
:100C0000D0402024A21A91400843194610BD10B5C7
:100C1000202A06DBCB170846203A1041C1170B43A8
:100C200006E00B461341D0402024A21A914008430D
:100C3000194610BD026813785118016018467047B4
:100C400010B5D1600449516104491162002111615C
:100C5000114600F075FA10BD350C00082D11000882
:100C60004268002A08D001680B78491C002B03D089
:100C7000521E06C0184670470121C160881E704789
:100C80004268002A0BD0C3680168002B07D1836833
:100C90008B4204D0491E521C06C000207047002021
:100CA000C04370470FB400B589B00A460DA9009142
:100CB00000230C99002ACB60234B0693234B079308
:100CC00001D0042300E00023214A0292214A089225
:100CD000019302466B460020FFF783FB09B008BC76
:100CE00004B01847F0B585B007460020C043019016
:100CF0001E46002015460C460091029104903B468A
:100D00006A46314604A8FFF7CDFF049902466018F1
:100D1000002D05D0002901D0034600E023462B60BA
:100D200000290ED0002A02DD0099814209D0001B63
:100D3000019000943B466A463146029404A8FFF7AE
:100D4000B1FF05B0F0BD0000610C0008810C000887
:100D5000FFFFFF7F2D110008F7B5009C0F4600260E
:100D60002578641C002D05D000F0DCF90068405D9A
:100D7000C007F5D12B2D02D02D2D18D0641E394679
:100D80002046029A00F078FB002F04D03968A14277
:100D900001D1009939607105022400290BDA404223
:100DA000002803DD0DF00EFA0460A007FEBD01204F
:100DB00080020643E3E70028F8DA0DF003FA046046
:100DC0000048FEBDFFFFFF7F002904DA401C4900F8
:100DD00001D140084000704770B40024050C05D1D3
:100DE0001024000402D1002921D01124050E01D1C4
:100DF00000020834050F01D10001241D850F01D127
:100E00008000A41C002801DB4000641C002908D0DD
:100E100020252E1B0D46F540A14000D0012129437D
:100E2000084301061B1B000ADB1D02D5002070BC15
:100E30007047DB05181880180029F8DA401C4900B3
:100E4000F5D170BC40084000704710B5002B08DA9F
:100E50000024401C614192185B411A4301D14008B3
:100E6000400010BDF0B51FB482B005460C0003D0A1
:100E700008460DF08FF902E00DF08CF920300246A3
:100E8000009021462846FFF7A1FE049B059A0446E0
:100E90000F4618431143084314D0184610431BD083
:100EA000009840210A1A18460599FFF79FFE05464B
:100EB0000E46009A05990498FFF788FE084305D06E
:100EC000012004E02046394607B0F0BD0020C117DC
:100ED00005430E432C43374300990E986305401A8F
:100EE0007905E40A00220C43FD0A0A3002D50020ED
:100EF0000146E9E70105101969410C9C0D9D001997
:100F00006941FFF7A2FFDFE7F0B50C465C4085B012
:100F1000E40FE40703944C0000266408590094464B
:100F2000490802460296224321D062460A431ED057
:100F30006200570D4A000E032303550D012402469B
:100F40002C492405781B1B0B360B401823432643E2
:100F5000614600901C46501AB44103D30098401CCF
:100F6000009002E0921800985B41002803DA00200C
:100F7000014605B0F0BD002001210905074686465F
:100F800011E064461D46141BB54106D36546521B4D
:100F9000B341744607430C43A646CD0740084908B1
:100FA000284392185B4105460D43EAD11046184389
:100FB00013D06046194650407140084306D0604641
:100FC000101AB34106D20122002306E000220123B9
:100FD000DB0702E00122D24353100098744601055A
:100FE000381C6141029C039D00196941FFF72DFFE8
:100FF000BFE70000FD0300000EB5054A0292002283
:10100000009213460192FFF72DFF03B000BD0000D0
:10101000330400004A0009030123090B1B0519438F
:101020000A4B10B5520D9A4202DA0020014610BD5B
:10103000064B34339A4203DC9A1AFFF7D7FD10BDF2
:10104000034BD218FFF7C2FD10BD0000FF030000E4
:10105000CDFBFFFF10B5002904DB0124E40740426B
:101060008C412146002B04DB1C460123DB07524246
:10107000A341994200D1904210BD0000CB0FDB0785
:10108000490010B5490802460A4307D00A0D072453
:101090000903E401090B121B002A01DC002010BD2A
:1010A000C900440F0C43C100E018D2058018FFF7B7
:1010B0008BFE10BD1CB509480090094801900546FB
:1010C0000126009C05E0E36807CC33430C3C9847BD
:1010D0001034AC42F7D3FEF7FDFF000018FC000807
:1010E00038FC000870B50446002903D000202022F7
:1010F000012310E0002801D00020C043C046C046B4
:101100000DE02546D5408D4205D30D469540641B24
:101110001D46954040191546521E002DF1DC214612
:1011200070BD00000048704708ED000810B5044687
:10113000FFF7F8FF0068005DC007C00F10BD00009A
:10114000F3B58DB000200A9001200B9000260846D0
:101150000C300C4609906269012109989047051EE0
:101160002ED0252D2DD0216A8847002818D06269FD
:10117000012109989047216A88470028F7D1411E2C
:1011800062690998904700E0761CA1690D9888472C
:10119000216A88470028F7D1E1690D988847DAE786
:1011A000A1690D9888470746A84201D1761CD2E76D
:1011B000E1690D9888477F1C02D10A98002877D0F2
:1011C00049E1002762693D463946099890472A2837
:1011D0000CD16269012109989047012506E00A2196
:1011E0004F433F18303FEBD4102005436269012183
:1011F00009989047014630390A2903D29B498F420A
:10120000DEDCECE7E90600D4994F6C280AD04C28C4
:1012100010D0682824D06A282ED074280CD07A28C0
:101220000AD00DE062690121099890476C2823D00B
:1012300004211CE0202005436269012109989047A0
:10124000A760656065284FD026DC582839D01ADCA5
:10125000452849D012DC252834D04128B0D143E0BC
:101260006269012109989047682802D008210D433E
:10127000E6E70120C002DEE70220DCE7462833D0A3
:1012800047282CD130E05B2870D061282CD063280F
:101290006CD0642823D161E06F284FD009DC662828
:1012A00022D0672820D0692826D06E2817D12EE0BA
:1012B000CDE070284DD073286FD075284ED0782897
:1012C0000DD154E0A1690D9888470546252800D125
:1012D0006CE7E1690D9888476D1C00D16DE7BAE0B5
:1012E0000A224CE00A2252E0012023466A46C0430B
:1012F0000D99FFF776F8A3E0284640210843606087
:10130000A807234601D5002239E000223FE0E80784
:1013100000D020E72068011D21600068290501D563
:10132000067018E7290701D5068014E7A90703D539
:10133000F117066041600EE706600CE72846402181
:1013400008436060A807234601D5082217E0082259
:101350001DE0484928460840606016E028464021C4
:1013600008436060A8072346BCD5B9E715E02846C6
:10137000402108436060A80707D5234610220120BA
:10138000C0430D99C046C0465AE0234610220120B2
:10139000C0430D99C046C04652E000210C910B4657
:1013A0000091632802D05B2807D043E0E80601D40F
:1013B0000120A060012000903CE0626901210998B1
:1013C00090475E2805D101200C900146626909987A
:1013D00090472169002906D10B4601AA8F00491CBC
:1013E000D3510829FADB002835D0216900290ED114
:1013F000C117C90E09184A11930001AA9A18490980
:101400004901411A0120136888400343136062694F
:101410000121099890475D28E5D10C98002808D053
:10142000002001AB81005A58401CD2435A50082872
:10143000F8DB01AB01202246C0430D99C046C046EF
:1014400000280ADA401C06D10B98002803D000209F
:10145000C0430FB0F0BD0A98FBE7E90702D10A9933
:10146000491C0A91361800200B9074E6CCCCCC0CA9
:10147000FFFFFF7FF1F7FFFFF7B582B0029C002767
:101480002078641C15460197302802D0002D15D015
:1014900015E020780127641C782804D0582802D051
:1014A000002D09D00BE0002D01D0102D07D1002711
:1014B00010252078641C02E0082500E00A2500269B
:1014C000009610E00099012769430818020C29468C
:1014D00080B2714300908E183804864201D30120F7
:1014E00001902078641C294600F019F80028E9DAF8
:1014F0000398002805D0002F01D0641E00E0029C54
:1015000004600198002806D00CF05CFE0221016006
:10151000C81E05B0F0BD009930040843F9E73A2829
:1015200000D23038202302469A43412A01D3104684
:101530003738884201D30020C043704770B58C18FB
:101540000578401C6B075B0F01D10378401C2A1102
:1015500006D10278401C03E006780E70401C491C3E
:101560005B1EF9D12B0705D40023521E0DD40B703E
:10157000491CFAE70378401CCB1A921C03E01D7843
:101580000D70491C5B1C521EF9D5A142D8D3002016
:1015900070BD00001048704770B50F480021818170
:1015A0000160416081600D4E31600D480DF012FB0D
:1015B0000C4D0422012428463146234607F0C2FA86
:1015C00000B170BD281D04490E222346039CA64687
:1015D00070BC01B007F0B6BA04150020D026002078
:1015E000C3F90008007C0108F0B59FB00D4640F239
:1015F0006C11441841780026012905906ED0802294
:101600000429069204963DD0032900D082E0217976
:10161000206804F0F9FAC6B25DA031460CF07AFDFC
:101620000796002E76D0039500278020069040264E
:1016300004E07F1CF8B2079988425DD208AD2846C5
:101640003146FEF7A0FD21792068029518AA019283
:101650001BAA0092FAB21EAB04F0E2FD0128E8D109
:101660004EA00DF0B7FA1EA800781BA918AA08AB67
:1016700005F090FC0128DCD150A00DF0ABFA44201D
:101680000690D6E72179206804F09EFBC7B239A006
:1016900039460CF03FFDEFB3FF2F33D1217920689D
:1016A00004F0F2FBB0B306460395002580200690B7
:1016B000442702E06D1CB5421ED2217920681BAA86
:1016C0000092EAB21EAB04F091FF0128F2D11EA8ED
:1016D00000781BA905F020FB0697EBE7217920682D
:1016E00008AA04F031FCA8804521069140B108A861
:1016F0002860012004900DE000200490039D09E083
:10170000049607E037B10395802006900026442513
:1017100004960AE0059801788906890F20D01FB049
:10172000F0BD0690761CB742E8D02179206818AA4F
:1017300001921BAA0092F2B21EAB04F02FFF012807
:10174000F0D10FA031460CF0E5FC1EA800781BA9D3
:1017500018AA05F02FFA01282846E2D00698E0E7FB
:101760000699C9B20091022304992A4603F05CF855
:101770001FB0F0BD636F756E742025640A00000011
:1017800064656C2062696E642025640A00000000B4
:10179000636F756E743A25640A000000504C435024
:1017A0005F47657442696E6444617461496E416467
:1017B0006442696E64506172616D00005541505021
:1017C000535F41434B5F4348414E4745440000004F
:1017D000F0B587B00D46044693A00DF0FBF906AEB8
:1017E00000273780059704972846FEF702FD81B24F
:1017F0002846324603F0EEF9318891480CF08AFC15
:10180000FFF7C8FE808930B36078032829D102949D
:101810008C48007878B302210A1A434206A90D8841
:101820000321894E3788AF421FD05F18022F24D082
:101830007488AC421BD05418032C1ED0B488AC4220
:1018400017D0D7B1F488AC4214D0091D5C18083603
:10185000032CE7D111E020788006800F03D007B079
:10186000F0BD8021D2E08421D5E0C91E02E0891EAE
:1018700000E0491ECFB2874205D1744800210CF028
:1018800049FC802005E000200146024604F062F891
:10189000442003906B48407818B302210A1A6A4B1F
:1018A0004633474206A90E8803219C1F2488B44270
:1018B0001FD07D18022D17D01C1F2488B4421AD0C7
:1018C0005418032C10D09C1E2488B44215D05DB14E
:1018D0001C88B44212D0091D7C180833032CE4D1B3
:1018E00002E0002181420CD1584801210CF012FC89
:1018F0000EE0C91E02E0891E00E0491EC9B2814205
:10190000F2D001210020024604F024F84420039084
:10191000EC48807818B302210A1AEB4B8633474211
:1019200006A90E8803219C1F2488B4421FD07D186D
:10193000022D17D01C1F2488B4421AD05418032C2F
:1019400010D09C1E2488B44215D05DB11C88B442CE
:1019500012D0091D7C180833032CE4D102E00021C9
:1019600081420CD1394802210CF0D4FB0EE0C91E93
:1019700002E0891E00E0491EC9B28142F2D0022174
:101980000020024603F0E6FF44200390CD48C078D3
:1019900018B302210A1ACC4BC633464206A90F8857
:1019A00003219C1F2488BC4221D07518022D17D01A
:1019B0001C1F2488BC421CD05418032C10D09C1E21
:1019C0002488BC4217D05DB11C88BC4214D0091DCC
:1019D00074180833032CE4D102E0002181420ED1B7
:1019E0001A4803210CF096FB029C03990EE0C91ED5
:1019F00002E0891E00E0491EC9B28142F0D00321F5
:101A00000020024603F0A6FF4421029C20788006B5
:101A1000800F00D023E70091002104AA0223204672
:101A200002F002FF07B0F0BD4150505F4465766997
:101A300063655F47726F7570436C6F73650D00006F
:101A400073FB0008241500204C1A002099FB0008A5
:101A5000F0B587B00D46044693A00DF0BBF806AE76
:101A600000273780059704972846FEF7C2FB81B20E
:101A70002846324603F0AEF8318891480CF04AFB14
:101A8000FFF788FD808930B36078032829D102945C
:101A90008C48007878B302210A1A434206A90D88BF
:101AA0000321894E3788AF421FD05F18022F24D000
:101AB0007488AC421BD05418032C1ED0B488AC429E
:101AC00017D0D7B1F488AC4214D0091D5C18083681
:101AD000032CE7D111E020788006800F03D007B0F7
:101AE000F0BD8021D2E08421D5E0C91E02E0891E2C
:101AF00000E0491ECFB2874205D1744800210CF0A6
:101B000009FB802005E000200146024603F02DFF7E
:101B1000442003906B48407818B302210A1A6A4B9C
:101B20004633474206A90E8803219C1F2488B442ED
:101B30001FD07D18022D17D01C1F2488B4421AD044
:101B40005418032C10D09C1E2488B44215D05DB1CB
:101B50001C88B44212D0091D7C180833032CE4D130
:101B600002E0002181420CD1584801210CF0D2FA48
:101B70000EE0C91E02E0891E00E0491EC9B2814282
:101B8000F2D001210020024603F0EFFE4420039032
:101B90004C48807818B302210A1A4B4B86334742CF
:101BA00006A90E8803219C1F2488B4421FD07D18EB
:101BB000022D17D01C1F2488B4421AD05418032CAD
:101BC00010D09C1E2488B44215D05DB11C88B4424C
:101BD00012D0091D7C180833032CE4D102E0002147
:101BE00081420CD1394802210CF094FA0EE0C91E52
:101BF00002E0891E00E0491EC9B28142F2D00221F2
:101C00000020024603F0B1FE442003902D48C07826
:101C100018B302210A1A2C4BC633464206A90F8874
:101C200003219C1F2488BC4221D07518022D17D097
:101C30001C1F2488BC421CD05418032C10D09C1E9E
:101C40002488BC4217D05DB11C88BC4214D0091D49
:101C500074180833032CE4D102E0002181420ED134
:101C60001A4803210CF056FA029C03990EE0C91E93
:101C700002E0891E00E0491EC9B28142F0D0032172
:101C80000020024603F071FE4421029C2078800669
:101C9000800F00D023E70091002104AA02232046F0
:101CA00002F0C2FD07B0F0BD4150505F4465766957
:101CB00063655F47726F75705374617465000000EF
:101CC00073FB0008241500204C1A0020B0FB00080C
:101CD000F0B589B00D46044608AE00273780079757
:101CE00006970846FEF785FA81B22846324602F08A
:101CF00071FFFFF74FFC808900285BD060780328D4
:101D00005ED101948021C44DC44E0BE0801D001DA6
:101D1000F9B2012203F07AFE4421C036C0357F1C9F
:101D2000042F4FD0BE48C25D1AB308A803882846C6
:101D300004889C4217D0012A1BD0C4889C420DD035
:101D4000022A16D084899C420AD0032A11D0448AE0
:101D50009C4207D01830121FEAD10AE0801D02E031
:101D60000C3000E01230001DF9B2002203F04EFEEC
:101D70004421AC48C25D002ACFD008A80388304671
:101D800004889C42C3D0012AC7D0C4889C42BDD0DD
:101D9000022AC2D084899C4208D0032ABDD0448A3A
:101DA0009C4205D01830121FEAD1B6E70C30AEE7DE
:101DB0001230ACE720788006800F47D1842147E0BD
:101DC00080213FE09848007868B3222242431346BE
:101DD000223B10464438049010466638039008A809
:101DE00004880027914E4420059066200290F05B05
:101DF000A0421AD0BB4216D03546F019468CA642F6
:101E000015D0049EBE420ED0059E865BA64210D021
:101E1000039EBE4207D0029E865BA6420BD0883747
:101E2000BA422E46E3D1019C0CE0F01904E02230C6
:101E300002E0443000E06630019C817C123003F007
:101E400003FE059920788006800F01D009B0F0BD0F
:101E5000C8B20090002106AA0223204602F0E4FC4A
:101E600009B0F0BDF0B589B00D46044608AE0027B4
:101E70003780079706970846FEF7BBF981B22846D8
:101E8000324602F0A7FEFFF785FB808998B16078A3
:101E9000032817D1059408F093FF0078012813D187
:101EA00008A8048808F08CFF4088442584420CD19F
:101EB00008F0BAFF09E020788006800F00D09EE08D
:101EC00084259EE0802596E08025534E534C0BE000
:101ED000801D801CF9B2012203F098FD4425C03416
:101EE000C0367F1C042F47D04D48C15D19B308A8E8
:101EF000028830460388934217D001291BD0C3883B
:101F000093420DD0022916D0838993420AD0032927
:101F100011D0438A934207D01830091FEAD10AE052
:101F2000801D02E00C3000E01230801CF9B200226B
:101F300003F06CFD44253B48C15D0029CFD008A8C3
:101F40000288204603889342C3D00129C7D0C388A2
:101F50009342BDD00229C2D08389934208D003297D
:101F6000BDD0438A934205D01830091FEAD1B6E7A5
:101F70000C30AEE71230ACE72B48017859B3222081
:101F80004843014622390246443A0346663B0393DE
:101F900008AC278800264423049366230293234B2E
:101FA0009B5BBB42059C18D0B14224D01F4B9C19AF
:101FB000638CBB4214D0B2420DD0049BE35ABB42A7
:101FC00010D0039BB34206D0029BE35ABB420BD016
:101FD0008836B042E3D1059C0DE01448841904E032
:101FE000223402E0443400E06634A178A01C03F0FF
:101FF0002BFD059C049D20788006800F01D009B040
:10200000F0BDE8B20090002106AA0223204602F0AB
:102010000BFC09B0F0BDC0464C1B00205C1E00202C
:102020002815002060190020D8260020540F002019
:10203000F0B583B014460D46014602A82A46FEF7C5
:1020400089F8022D39D12BA00CF0C4FD2178002095
:10205000632930D1617868292DD1A1785F292AD1EF
:10206000E0783138C0B2274C235C4BB38101264A5B
:10207000545A02A90D880022012602270192AC427F
:1020800022D011463143994210D2AC421CD01146A5
:10209000394399420AD2AC4216D0032111439942E6
:1020A00004D2AC4210D0121D9A42E8D31F2B1A461C
:1020B000144C06D9032003B0F0BD012003B0F0BDDD
:1020C0000022591C215400E0019A80010E4C201876
:1020D000520002A9098881520CA00CF01BF880481C
:1020E0000123214640F2001206F02CFD002003B02F
:1020F000F0BDC0464150505F47726F75705F4A6FC8
:10210000696E0000241500204C1A002061646420D0
:1021100067726F75703A253034580A00F0B581B097
:102120000D4604462CA00CF055FD287800216328AC
:102130004ED1687868284BD1A8785F2848D1E878D4
:102140003138C2B26448815C217049B103260E4027
:102150009201624B9A18042904D2002301211EE047
:10216000012135E000968908CD0000210B46565C20
:1021700067187E7056187078B870B078F870F0787C
:102180003871307978717079B871B079F871F07907
:10219000387208311B1D8D42E9D1491C009EBEB129
:1021A000651C5800135C63541218507868548B1CDB
:1021B000012E06D09078E054D078E8540B1D022E02
:1021C00001D1194604E01079E0545079E854891D92
:1021D00088B201B0F0BDC0464150505F47726F7584
:1021E000705F4C6973740000F0B585B014460D46FD
:1021F000064635A00CF0EEFC04A831462A46FDF751
:10220000A9FF022D34D12178002063295AD16178A9
:10221000682957D1A1785F2954D1E0783138C3B209
:10222000E34EF25C9801E0490C1822B302930220BD
:10223000861A0192574204A90A880325039421882B
:1022400091421AD0791902293CD06388934216D062
:102250007319032B36D0A388934212D091B3E1882F
:1022600091420FD02D1D791908340329E7D129E0B7
:10227000012005B0F0BD002508E0ED1E02E0AD1E16
:1022800000E06D1E039C029BC94E019AE8B2904289
:1022900002D1022005B0F0BD521EF2546800201891
:1022A000811C2646D4B2621B5200FDF753FF60002A
:1022B00000243452BB48BC49012340F2001206F00E
:1022C00041FC204605B0F0BD4150505F47726F752C
:1022D000705F517569740000241500204C1A0020AD
:1022E00000980108F0B595B00D46019008F068FD22
:1022F0000078012805D108F005FE022801D107F079
:10230000A1FC2F462F374D4C38462146FDF778FF6C
:102310000026002800D18DE021461E313846FDF709
:102320006FFF002854D021463C313846FDF768FF46
:10233000002800D17EE021465A313846FDF760FF83
:1023400000284AD0214678313846FDF759FF002849
:1023500048D0214696313846FDF752FF002846D036
:102360002146B4313846FDF74BFF002862D02146A4
:10237000D2313846FDF744FF00285BD02146F031CA
:102380003846FDF73DFF002854D040F20E102118CA
:102390003846FDF735FF00284CD040F22C102118AC
:1023A0003846FDF72DFF002844D040F24A1021188E
:1023B0003846FDF725FFE8B340F26810211838468B
:1023C000FDF71EFFB0BB291D0198FFF741FB30E070
:1023D000291D0198FFF7FCF92BE02A1D019800F058
:1023E00023FF26E02A1D019800F070FF21E0002461
:1023F0001394129412480CF0EDFB019E70780128A2
:102400000BD1291D02AC2046FFF788FE129401244F
:10241000452118B112AA908000E080213078800612
:10242000800F06D1009112AA02233046214602F005
:10243000FBF90126304615B0F0BDC0466A01002008
:102440004AFA000880B502F011FF00F051FE00F0DA
:10245000A9FC00F081FD00F089FD00F0B9FD00F05D
:10246000ADF880BC01BC864600F022B80048704739
:10247000D026002010B584B000F036FE48B102AC82
:10248000204600F01FFE2188039802F0B9FF00F0FB
:10249000F1FD684602F0D6FE28B168460188019831
:1024A000024A06F0B7FF04B010BDC0460038014034
:1024B000F0B581B03B483C4D294640F2001206F091
:1024C0007BFB0090002867D100273B4C3E462B88C1
:1024D000364883420AD04BB12046394632460BF08B
:1024E00019FEAD1C761C202EF1D106E03048067096
:1024F0003048002132460BF00DFE2B4C274640376A
:10250000002501263B88294883420AD04BB12A483E
:1025100031462A460BF0FEFDBF1C6D1C202DF1D16B
:1025200006E023484570234801212A460BF0F2FDBE
:10253000264680360025022733881C4883420AD06D
:102540004BB11D4839462A460BF0E4FDB61C6D1C04
:10255000202DF1D106E016488570164802212A4642
:102560000BF0D8FDC0340025134F032623880F48F5
:1025700083420AD04BB1384631462A460BF0CAFD99
:10258000A41C6D1C202DF1D106E00948C570094836
:1025900003212A460BF0BEFD00994842484101B094
:1025A000F0BDC046009801084C1A0020FFFF000053
:1025B0002415002081FB00084CFB0008F0B583B017
:1025C00040F22022E0329248924E3146029206F0CA
:1025D000F3FA0190002800D02CE1BA3600258E4F86
:1025E0002C463046BA380088B84200D116E100289F
:1025F0002A4600D113E13046B43800880122002871
:1026000000D10CE1B84200D109E13046AE38008873
:102610000222002800D102E1B84200D1FFE030469A
:10262000A83800880322002800D1F8E0B84200D181
:10263000F5E03046A23800880422002800D1EEE000
:10264000B84200D1EBE030469C38008805220028D3
:1026500000D1E4E0B84200D1E1E03046963800888D
:102660000622002800D1DAE0B84200D1D7E0304697
:10267000903800880722002800D1D0E0B84200D16D
:10268000CDE030468A3800880822002800D1C6E014
:10269000B84200D1C3E030468438008809220028BF
:1026A00000D1BCE0B84200D1B9E030467E380088A5
:1026B0000A22002800D1B2E0B84200D1AFE0304693
:1026C000783800880B22002800D1A8E0B84200D159
:1026D000A5E03046723800880C22002800D19EE028
:1026E000B84200D19BE030466C3800880D220028AB
:1026F00000D194E0B84200D191E0304666380088BD
:102700000E22002800D18AE0B84200D187E030468E
:10271000603800880F22002800D180E0B84200D144
:102720007DE030465A3800881022002877D0B84221
:1027300075D0304654380088112200286FD0B84236
:102740006DD030464E3800881222002867D0B8423B
:1027500065D0304648380088132200285FD0B84240
:102760005DD03046423800881422002857D0B84245
:1027700055D030463C380088152200284FD0B8424A
:102780004DD03046363800881622002847D0B8424F
:1027900045D0304630380088172200283FD0B84254
:1027A0003DD030462A3800881822C0B3B84236D00F
:1027B000304624380088192288B3B8422FD03046DA
:1027C0001E3800881A2250B3B84228D03046183834
:1027D00000881B2218B3B84221D030461238008836
:1027E0001C22E0B1B8421AD030460C3800881D22B5
:1027F000A8B1B84213D0B01F00881E2278B1B842E9
:102800000DD030881F2250B1B84208D00DE0C0462C
:1028100000A401084C1B0020FFFF00002A469A4834
:1028200002559AA021460BF075FCC036641C042C9E
:1028300000D0D6E69B489C4E3146029A06F0BCF981
:102840000290002800D03FE1BA360025974F2C4671
:102850003046BA380088B84200D129E100282A461B
:1028600000D126E13046B43800880122002800D18A
:102870001FE1B84200D11CE13046AE380088022288
:10288000002800D115E1B84200D112E13046A83845
:1028900000880322002800D10BE1B84200D108E1F2
:1028A0003046A23800880422002800D101E1B84255
:1028B00000D1FEE030469C3800880522002800D177
:1028C000F7E0B84200D1F4E030469638008806229E
:1028D000002800D1EDE0B84200D1EAE0304690385F
:1028E00000880722002800D1E3E0B84200D1E0E0F0
:1028F00030468A3800880822002800D1D9E0B84242
:1029000000D1D6E03046843800880922002800D162
:10291000CFE0B84200D1CCE030467E3800880A22B1
:10292000002800D1C5E0B84200D1C2E03046783876
:1029300000880B22002800D1BBE0B84200D1B8E0EB
:102940003046723800880C22002800D1B1E0B8422D
:1029500000D1AEE030466C3800880D22002800D14E
:10296000A7E0B84200D1A4E03046663800880E22C5
:10297000002800D19DE0B84200D19AE0304660388E
:1029800000880F22002800D193E0B84200D190E0E7
:1029900030465A3800881022002800D189E0B84219
:1029A00000D186E03046543800881122002800D13A
:1029B0007FE0B84200D17CE030464E3800881222D9
:1029C000002876D0B84274D03046483800881322A8
:1029D00000286ED0B8426CD03046423800881422AD
:1029E000002866D0B84264D030463C3800881522B2
:1029F00000285ED0B8425CD03046363800881622B7
:102A0000002856D0B84254D03046303800881722BB
:102A100000284ED0B8424CD030462A3800881822C0
:102A2000002846D0B84244D03046243800881922C5
:102A300000283ED0B8423CD030461E3800881A22CA
:102A4000B8B3B84235D03046183800881B2280B35E
:102A5000B8422ED03046123800881C2248B3B84203
:102A600027D030460C3800881D2210B3B84220D041
:102A7000B01F00881E22E0B1B8421AD030881F2251
:102A8000B8B1B84215D01AE02815002063685F730A
:102A900063656E65496E6465785B25645D203D20E5
:102AA00025640A0000A801085C1E0020FFFF00004A
:102AB0002A469C4802559CA021460BF02BFBC036B1
:102AC000641C042C00D0C3E69E489F4C214640F273
:102AD000202206F071F8002800D018E140F22020F2
:102AE00021189A4840F2202206F066F8002800D00B
:102AF0000DE1228800218A48824200D1FBE0002AB1
:102B000000D1F8E0628C0121002A00D1F3E082427A
:102B100000D1F0E04421625A0221002A00D1EAE00B
:102B2000824200D1E7E06621625A0321002A00D1E7
:102B3000E1E0824200D1DEE08821625A0421002ACD
:102B400000D1D8E0824200D1D5E0AA21625A052105
:102B5000002A00D1CFE0824200D1CCE0CC21625AE1
:102B60000621002A00D1C6E0824200D1C3E0EE2156
:102B7000625A0721002A00D1BDE0824200D1BAE0AA
:102B800040F21011625A0821002A00D1B3E08242BB
:102B900000D1B0E040F23211625A0921002A00D17E
:102BA000A9E0824200D1A6E040F25411625A0A2103
:102BB000002A00D19FE0824200D19CE040F27611D1
:102BC000625A0B21002A00D195E0824200D192E0A6
:102BD00040F29811625A0C21002A00D18BE0824207
:102BE00000D188E040F2BA11625A0D21002A00D1CA
:102BF00081E0824200D17EE040F2DC11625A0E2177
:102C0000002A00D177E0824275D040F2FE11625A6C
:102C10000F21002A6FD082426DD040F22021625AEB
:102C20001021002A67D0824265D04949625A112199
:102C3000002A60D082425ED040F26421625A1221A2
:102C4000002A58D0824256D04249625A1321002AA3
:102C500051D082424FD040F2A821625A1421002A5A
:102C600049D0824247D03C49625A1521002A42D0BD
:102C7000824240D040F2EC21625A1621DAB38242FD
:102C800039D03649625A1721AAB3824233D040F272
:102C90003031625A182172B382422CD03049625AC4
:102CA000192142B3824226D040F27431625A1A216D
:102CB0000AB382421FD02B49625A1B21DAB18242E9
:102CC00019D040F2B831625A1C21A2B1824212D00E
:102CD0002549625A1D2172B182420CD040F2FC316A
:102CE000625A1E213AB1824205D02049625A1F2100
:102CF0000AB1824204D11E4801701EA00BF00AFAEC
:102D00000A200BF05FFF01980299014305D01EA035
:102D10000BF060FF002003B0F0BD012003B0F0BD58
:102D2000FFFF0000601900206C65645F7363656ECF
:102D300065496E6465785B25645D203D2025640AE5
:102D40000000000000900108540F002000940108CA
:102D50004202000086020000CA0200000E030000CA
:102D60005203000096030000DA0300001E04000076
:102D7000D82600207363656E65496E646578203DD2
:102D80002025640A000000004150505F52656164D4
:102D9000416C6C5363656E65496E666F2065727237
:102DA0006F722100B0B56248624D294640F2F022B0
:102DB00005F002FF044608B12046B0BD2A78FF2A7C
:102DC0000FD012B9FF2028700BE05B4800210BF0F8
:102DD000A1F9691C2A460E322B461B3357480BF0CB
:102DE00099F95E202A5CFF2A10D012B9FF212954DC
:102DF0000CE0514801210BF08DF929465F312A463C
:102E00006C322B4679334D480BF084F9BC202A5C98
:102E1000FF2A10D012B9FF2129540CE046480221A4
:102E20000BF078F92946BD312A46CA322B46D733F2
:102E300042480BF06FF940F21A102A5CFF2A13D0B7
:102E400012B9FF2129540FE03B4803210BF062F92E
:102E500040F21B10291840F228102A1840F23510B1
:102E60002B1836480BF056F940F278102A5CFF2AEE
:102E700013D012B9FF2129540FE02F4804210BF081
:102E800049F940F27910291840F286102A1840F2C8
:102E900093102B1829480BF03DF940F2D6102A5C0C
:102EA000FF2A13D012B9FF2129540FE0224805212F
:102EB0000BF030F940F2D710291840F2E4102A182C
:102EC00040F2F1102B181D480BF024F940F2342089
:102ED0002A5CFF2A10D012B9FF2129540CE01648B1
:102EE00006210BF017F91648291816482A18164813
:102EF0002B1812480BF00EF914482A5CFF2A11D047
:102F000012B9FF2129540DE00B4807210BF002F9FB
:102F10000F48291840F2A0202A180E482B180748FD
:102F20000BF0F8F80A200BF04DFE2046B0BDC0466D
:102F30000068010850160020B7FA0008E7FA0008F8
:102F400035020000420200004F0200009202000021
:102F500093020000AD02000002480349C02205F0C0
:102F60002BBEC04600E001086C190020B0B5074830
:102F7000074C0822214605F01FFE0546217862888D
:102F8000A38804A00BF0C6F82846B0BD00E40108F1
:102F90002C1A00206D795F4E696768745363656E03
:102FA000652E656E61626C653A2564206F70656E92
:102FB0005F6E696768743A2530345820636C6F73AC
:102FC000655F6E696768743A253034580A000000FE
:102FD000B0B5124D124C04222846214605F0ECFDF6
:102FE00028B9281D0F490E22012305F0ABFD60789A
:102FF000FF2801D100206070A078FF2801D10020B7
:10300000A0702078FF2801D100202070E078FF28F0
:1030100000D0B0BD0020E070B0BDC046007C01080B
:10302000D026002004150020F0B581B03D490E885F
:1030300002889319002140F2F414A34217D83A4BA6
:103040001F88032F13D835498C194168054620463F
:10305000FDF780F8F8002988314A115210184460B1
:10306000781C314A108088192E49088001210846B1
:1030700001B0F0BDF0B581B02A4E35882A480088ED
:1030800029460143090419D080B20090244F3C889E
:103090002248011940F2F412121BFDF75BF8281BBD
:1030A0003080384608300EC80EC70EC80EC70098CC
:1030B000401E1D490880012001B0F0BD002001B074
:1030C000F0BDC04617490A88174909888BB200210C
:1030D000134306D0124A12881AB110494160028087
:1030E000012108467047C0460F4800887047C04617
:1030F00080B50A4840F2F411FDF745F80848002170
:10310000016041608160C160016141618161C161B3
:10311000044801800448018080BDC0462804002086
:103120001C0600203E0600203C060020F0B503AF40
:1031300085B06E4631610446F060FEF72BFA40F22E
:103140006C102258937854782502E91801203160D8
:103150000140B160ED0B6106C90F4919A506ED0FDD
:103160006918E506ED0F69182507ED0F6918650761
:10317000ED0F6918A507ED0F691825467060054029
:1031800010466918DD0969185D06ED0F69189D067E
:10319000ED0F6918DD06ED0F69181D07ED0F6918B1
:1031A0005D07ED0F69189D07ED0F6918B268521899
:1031B0000A3207218A4301786D46AD1AAD46AB70DD
:1031C0006C70F468297063780022032B0DD0012BFA
:1031D00014D1E81C326802F085FB32691560452184
:1031E000F8B1C01C908075680BE0154640F26C1178
:1031F0006118097902F0DEFB442101E015468021C7
:10320000326920788006800F07D182B000910223B6
:103210002046294601F008FB02B0FE1F053EB546D8
:10322000F0BD7568EDE7000070B5FFB0A3B01546BE
:10323000044621A00BF0CEFC607803280AD140F2AE
:103240006C102018818800682A46FEF7F1FE08B14C
:10325000802600E0442620788006800F28D101AD2A
:10326000284640F27411FCF78EFF022220462946C0
:10327000334605F0BAF99FAE2046314605F040F8D6
:103280002846314604F0DCFD5EAC26460836F821BF
:103290003046FCF778FFCA485F90CA485E902846DF
:1032A000314604F029FD083081B2204602F0CEFB01
:1032B0007FB023B070BDC046656E74657220475202
:1032C0004F55505F4A4F494E0000000070B5FFB0A7
:1032D000A3B01546044621A00BF07CFC60780328BF
:1032E0000AD140F26C102018818800682A46FEF747
:1032F0007BFF08B1802600E0442620788006800FFE
:1033000028D101AD284640F27411FCF73CFF02229F
:1033100020462946334605F068F99FAE20463146DF
:1033200004F0EEFF2846314604F08AFD5EAC2646E6
:103330000836F8213046FCF726FFA1485F90A148E7
:103340005E902846314604F0D7FC083081B2204612
:1033500002F07CFB7FB023B070BDC046656E746523
:10336000722047524F55505F51554954000000009C
:1033700070B5FFB0A3B004464078032806D1101DF5
:10338000002104F003F918B1442603E0802601E08F
:103390007F20C64320788006800F28D101AD2846C3
:1033A00040F27411FCF7EFFEF3B2022220462946E8
:1033B00005F01BF99FAE2046314604F0A1FF2846D8
:1033C000314604F03DFD5EAC26460836F821304615
:1033D000FCF7D9FE7A485F907A485E9028463146DD
:1033E00004F08AFC083081B2204602F02FFB7FB047
:1033F00023B070BD70B5FFB0A3B004464078032879
:1034000006D1101D012104F0C1F818B1442603E0D3
:10341000802601E07F20C64320788006800F28D1D7
:1034200001AD284640F27411FCF7ADFEF3B2022262
:103430002046294605F0D9F89FAE2046314604F0D3
:103440005FFF2846314604F0FBFC5EAC264608369A
:10345000F8213046FCF797FE59485F9059485E9036
:103460002846314604F048FC083081B2204602F07C
:10347000EDFA7FB023B070BD70B5FFB0A3B00D46BC
:10348000044621A00BF0A6FB607803280AD140F285
:103490006C102018818800682A4600F0C7FD08B12A
:1034A000802600E0442620788006800F28D101ADD8
:1034B000284640F27411FCF766FE02222046294697
:1034C000334605F092F89FAE2046314604F018FFCF
:1034D0002846314604F0B4FC5EAC26460836F82196
:1034E0003046FCF750FE36485F9036485E902846DE
:1034F000314604F001FC083081B2204602F0A6FA01
:103500007FB023B070BDC046656E746572205343B2
:10351000454E455F4A4F494E0000000070B5FFB070
:10352000A3B00D46044621A00BF054FB607803289D
:103530000AD140F26C102018818800682A4600F0F9
:10354000A7FF08B1802600E0442620788006800F7F
:1035500028D101AD284640F27411FCF714FE022276
:1035600020462946334605F040F89FAE20463146B6
:1035700004F0C6FE2846314604F062FC5EAC2646E6
:103580000836F8213046FCF7FEFD0D485F900D48E7
:103590005E902846314604F0AFFB083081B22046E9
:1035A00002F054FA7FB023B070BDC046656E7465FA
:1035B00072205343454E455F515549540000000069
:1035C0001B0A1B0A1B1B1B1BF0B503AF87B06E4603
:1035D0000446F0603CA00BF0FDFA40F26C1020585D
:1035E0003061837840780502EA18012172600A4050
:1035F000ED0B4406E40F64198506ED0F2C19C50682
:10360000ED0F2C190507ED0F2C194507ED0F2C199F
:103610008507ED0F2C190546B1600D402C19DD0909
:103620002C195D06ED0F2C199D06ED0F2C19DD06EA
:10363000ED0F2C191D07ED0F2C195D07ED0F2C193F
:103640009D07ED0F2C1912190A320724A243316984
:1036500009786C4634616C46A51AF468AD46AB70C7
:1036600068702970607801280BD00025032815D1D7
:1036700040F26C1020180179006802F0F1F9442141
:103680000DE0E81C726802F0A9F87561452118B1D7
:10369000C01CF21D0D329080B56800E080212078BA
:1036A0008006800F09D182B00091F21D0D320223F5
:1036B0002046294601F0B8F802B030698546FE1F61
:1036C000053EB546F0BDC0464150505F535441548D
:1036D000455F5345545F434F4E4649470000000045
:1036E00010B504460AA00BF075FA20680E49086070
:1036F00060684860A0688860E068C8600B48102275
:103700000123019CA64610BC01B005F01BBAC046BF
:103710004150505F536176655F6C696768745F63A1
:10372000745F696E666F00007823002000B801089E
:1037300070B52A4D284640F20011FCF724FD2848B8
:103740000026066027480124294640F2001223463D
:1037500005F0F8F99F480670A14806602248066007
:103760009D4840F24041FCF70EFD204E304640F2AD
:103770000031FCF708FD1E4840F20031FCF703FD64
:1037800040F22025E0351B4831462A46234605F005
:10379000D9F910B118480BF01DFA184814492A46F7
:1037A000234605F0CFF910B115480BF013FA154870
:1037B000894D294640F22022234605F0C3F900B185
:1037C00070BD40F2202029180F4840F220222346E5
:1037D000039CA64670BC01B005F0B4B94C1A002099
:1037E0002415002000980108601900204C1B0020BF
:1037F0005C1E002000A40108EBFB000800A80108E3
:10380000CBFB00080090010800940108F0B58FB0D0
:1038100070490A78029052B103211140042A0392A0
:103820000C9106D201200023002954D1B5E00120DB
:10383000B3E0910828220D9251430E91664D002766
:103840003E463B4681192A88CF708A700F714F71AE
:103850008F71CF718F7201244C720C72120A4A70F0
:103860006A8C4F730A738F73CF730F744F740F7515
:10387000CC748C74120ACA724422AA5ACF758A7503
:103880000F764F768F76CF768F774C770C77120A3C
:103890004A756622AA5A18462123CF542023CA54B7
:1038A0000D9BCF542723CC542623CC540B462133D5
:1038B0005F709F70DF701F7103460298120ACA770B
:1038C00028361B1D88350E99B142BBD1701C039A56
:1038D0000C99002961D0029A114609311546083524
:1038E000D41D0E94971C541C22265E433A4B079617
:1038F0009B5B0D9316460994235400233A463B5490
:1039000001240E9F3C540A9508942C540B910B549F
:103910000D990C0A34540D9214186370A370E3705F
:10392000237104460A340C9901291CD02A49079AAC
:10393000511807914F8C09990F550D990B55089DFA
:103940000E9A15550A9A15550B9A13553F0A029A65
:1039500017550C196370A370E37023710446143477
:103960000C99022901D1204616E044270799CF5B24
:1039700009990F550D9D2B55089A0E990A550A99CC
:103980000A550B990B55390A029A115529194B7092
:103990008B70CB700B711E30039A00210F4D0AE023
:1039A0002846089D019B039AD2180499C035491CEA
:1039B000042900D192E10A4B5B5C002BF6D0039204
:1039C0000A463132042B0193049108950D9209D2D5
:1039D0000026DDE0D8260020540F00204C1B0020DC
:1039E00028150020990818234B43059300263146DB
:1039F0000C96029C0E9107960E99695A431C9BB235
:103A0000E154090A83B2E154811C89B263236354EF
:103A10001D460B93C11C89B2682363541F460A9349
:103A2000011D89B25F2306936354411D89B262541C
:103A3000811D89B20C9A6254C11D8BB20126E654D5
:103A4000034608339BB2E654089A0E9BD11809919D
:103A50008B780246093292B2A354CB8802460B32CD
:103A600092B2A35402460C3292B2A55402460D32D1
:103A700092B2A75402460E3292B20699A15402465F
:103A80000F3292B20D9DA5540246103292B20C9F95
:103A9000A7540246113292B2A6540246123292B292
:103AA000A6541A0A03460A339BB2E254099D2A7AA5
:103AB000034613339BB2E254AB890246153292B2ED
:103AC000A3540246163292B20B9DA55402461732F9
:103AD00092B20A9DA5540246183292B2A1540246EF
:103AE000193292B20D9DA55402461A3292B2A754D1
:103AF00002461B3292B2A65402461C3292B2A6541F
:103B00001A0A034614339BB2E254099FBA7B034658
:103B10001D339BB2E2547B8A02461F3292B2A354F9
:103B20000246203292B20B9DA5540246213292B237
:103B30000A9DA5540246223292B2A1540246233273
:103B400092B20D9DA5540246243292B20C99A15412
:103B50000246253292B2A6540246263292B2A654AA
:103B6000190A02461E3292B2A154397D079E089D61
:103B70000246273292B2A1540D9A0E9918310E9135
:103B8000361D283005990E9B99420E9900D031E7D9
:103B90000324019B1C4000D105E7C0231746049A6B
:103BA00053435D4AD1180E91062575434E5B431C65
:103BB0009BB2029AD654831C9BB263210B91D154C1
:103BC000C31C9BB268210A91D154031D9BB25F2193
:103BD0000991D154431D9BB2D754831D9BB200273A
:103BE0000C97D754C31D9FB20123D35507460837FE
:103BF000BFB2D355360A87B2D6550E9949198D787A
:103C000006460936B6B2955505460A35012C00D14F
:103C1000C6E6CE880E9607460B37BFB2D655074686
:103C20000C37BFB20B9ED65507460D37BFB20A9E62
:103C3000D65507460E37BFB2099ED65507460F37F1
:103C4000BFB20D9ED65507461037BFB20C9ED65553
:103C500007461137BFB2D35507461237BFB2D35507
:103C60000E9E360AADB256550D7A06461336B6B2DA
:103C7000955505461435022C00D191E68C890646EF
:103C80001536B6B2945506461636B6B20B9F975502
:103C900006461736B6B20A9F975506461836B6B28C
:103CA000099F975506461936B6B20D9F9755064699
:103CB0001A36B6B20C9F975506461B36B6B29355C8
:103CC00006461C36B6B29355240AABB2D454897B4F
:103CD00003461D339BB2D1541E3062E60021D14D04
:103CE0000AE02846059D009B039AD2180199C03529
:103CF000491C042900D18FE1CB4B5B5C002BF6D033
:103D000003920C463134042B0093019105950D94D8
:103D100004D20027D9E0C0464C1B00209908182285
:103D20004A43049200210F46029E0E9108970E9975
:103D3000695A421C92B2B154090A82B2B154811C30
:103D400089B26C22725417460B92C11C89B265224B
:103D50000C927254011D89B264220A927254411D60
:103D600089B25F2209927254811D89B27454C11DB7
:103D700089B2012373540146083189B273540E99F4
:103D800069188A7805460935ADB27255CD88024664
:103D90000B3292B2B55402460C3292B2B75402467C
:103DA0000D3292B20C9CB45402460E3292B20A9C6E
:103DB000B45402460F3292B2099CB45402461032F7
:103DC00092B20D9FB7540246113292B20793B35488
:103DD0000246123292B2B3542A0A05460A35ADB2EF
:103DE000725506910A7A05461335ADB272558D8922
:103DF0000246153292B2B5540246163292B20B996F
:103E0000B1540246173292B20C99B154024618329C
:103E100092B20A9BB3540246193292B2B45402468B
:103E20001A3292B20D9FB75402461B3292B2079CCF
:103E3000B45402461C3292B2B4542A0A05461435D0
:103E4000ADB2725506998A7B05461D35ADB27255E5
:103E50004D8A02461F3292B2B5540246203292B2C7
:103E60000B9FB7540246213292B20C9FB7540246C0
:103E7000223292B2B3540246233292B2099BB35417
:103E80000246243292B20D9FB754089F0246253253
:103E900092B2B4540246263292B2B4542A0A059D14
:103EA00004461E34A4B232550D9C097D02462732C9
:103EB00092B2B1540E9918310E913F1D28300499D9
:103EC0000E9A91420E9900D02FE70321009B1940D2
:103ED00000D109E7C022019B5A43EC4B9A180E927D
:103EE00006257D43565B421C92B2029FBE54821C43
:103EF00093B20A466C210C91F9541146C21C92B23D
:103F000065230B93BB54021D92B264230A93BB54E6
:103F1000421D92B25F230993BB54821D92B2BC54DE
:103F2000C21D92B20124BC540246083292B2BC5463
:103F3000320A86B2BA550E9A53199A78054609354F
:103F4000ADB27A5505460A35012900D1C9E6DE88A9
:103F50000E9602460B3292B2BE5402460C3292B218
:103F60000C9EBE5402460D3292B20B9EBE540246C7
:103F70000E3292B20A9EBE5402460F3292B2099E8F
:103F8000BE540246103292B20D9EBE540246113209
:103F900092B2BC540246123292B2BC540E9A120A29
:103FA000ADB27A551A7A05461335ADB27A55054643
:103FB0001435022900D194E699890246153292B24D
:103FC000B9540246163292B20C9EBE5402461732C3
:103FD00092B20B9EBE540246183292B20A9EBE5452
:103FE0000246193292B2099EBE5402461A3292B269
:103FF0000D9EBE5402461B3292B2BC5402461C3285
:1040000092B2BC54090AAAB2B954997B02461D3235
:1040100092B2B9541E3065E602990A7080B20FB0B0
:10402000F0BDC0465C1E002060190020F0B583B0D2
:1040300003460120032900D209E11C785D782D0296
:104040002D196C1CA4B2022C00D200E1FE31CFB2BB
:104050009978B94200D3FAE002959C1C491C0023D0
:10406000B9421D461E4605D0665C8D19BD4200D37F
:10407000EDE06518844F3B607B60BC60FB603D6198
:104080007B61701C387539730298B8801678632E7E
:1040900043D15078682800D087E090785F2800D01E
:1040A00083E0D07831387870C2B2F748815C00295B
:1040B00000D1C4E0C02015465043F44A171800262A
:1040C0000623184670433A5A029880B2824200D1C1
:1040D000D5E0012232438A421CD21C4654433C5B49
:1040E000844200D1ADE0022232438A4212D21C4601
:1040F00054433C5B844200D1A3E0032232438A4212
:1041000008D21C4654433C5B844200D199E0361DE2
:104110008E42D6D30A465C4B96E0D6490423144619
:1041200010461A46FCF790F8002847D00320002ECE
:1041300000D08CE0022101913970CF490978002923
:1041400000D186E000272223CC4E029A95B20122AC
:104150000292032200921A467A43B25AAA4200D12E
:104160008FE03A46029C22438A421BD21C465443AB
:10417000345BAC426ED03A46019C22438A4211D253
:104180001C465443345BAC4264D03A46009C224304
:104190008A4207D21C465443345BAC425AD03F1D7E
:1041A0008F42D8D30A46384B57E0B249042314460D
:1041B00010461A46FCF748F8002847D101263E7001
:1041C000207931387870C2B2AD48815C019261B318
:1041D000C0205043AB4A13180027062002467A43FA
:1041E0009A5A029CA4B2A24247D03A4632438A422B
:1041F00018D2054655435D5BA54217D002223A43CB
:104200008A420FD2054655435D5BA5420ED003227C
:104210003A438A4206D25043185AA04206D03F1D64
:104220008F42DAD30A46184B03E000228A42164B2B
:104230001BD11F290AD80198914C241813E0154668
:1042400000228A42104B10D11F290AD9032003B043
:10425000F0BD00228A420C4B07D11F29864CF6D8AC
:1042600001E089484419481C20709A70184603B030
:10427000F0BC02BC8E4600F0A9BB3A46D6E73246F7
:10428000DFE73A46E6E7C046400600205C1E002015
:10429000F0B581B00D4604460E78632E17D16878CC
:1042A000682826D1A8785F2823D1E8783138C2B2AF
:1042B000EE48805C2070C0B303210140C02353430B
:1042C000ED4AD618042851D2002301206BE0E449BE
:1042D00004222846FBF7B8FF98B186B966480078F3
:1042E000207010B303270740042877D20022012052
:1042F0009BE0DB4904222846FBF7A6FF08B100201B
:10430000B4E028793138C2B2D648805C207060B100
:1043100003210140C0235343D34AD618042806D2B0
:1043200000230120002940D1A0E001209EE0800868
:10433000C500002000960346271832787A707278FC
:10434000BA70B279FA70F2793A71327B7A71727B13
:10435000BA71B27CFA71F27C3A72183608301B1DC1
:104360008542E9D1401C009EF9B97FE08008C50074
:10437000002000960346271832787A707278BA7057
:10438000B279FA70F2793A71327B7A71727BBA71D2
:10439000B27CFA71F27C3A72183608301B1D8542E5
:1043A000E9D1401C009E002960D0651C06225A43BA
:1043B000B35C2354B21853782B54831C012906D0C4
:1043C0009679E654D679EE54031D022901D1184698
:1043D0004CE0117BE154517BE95446E000978008A2
:1043E000C3000020254D222602462718297879701F
:1043F0006978B970A95DF970294622314978397117
:104400004421695C7971294644314978B971662142
:10441000695CF97129466631497839720830121D94
:1044200088358342E1D1401C009FFFB1631C2225E7
:104430006A4312498E5C26548A1851781954861C96
:10444000012F01D1304611E0515DA15511462231B5
:1044500049789955051D022F01D1284606E04421CF
:10446000515C6155443251785955801D80B201B07C
:10447000F0BDC046C6FB0008D8260020540F00201F
:10448000601900205C1E0020281500204C1B002015
:10449000F0B583B0144605466DA00AF09BFB287862
:1044A000697809020D18681C80B2022802D2012026
:1044B00003B0F0BD2078632831D1607868282ED110
:1044C000A0785F282BD1E0783138C2B2674B9C5C72
:1044D000C020504368490918002C58D0019202208E
:1044E000071B00946242032602910C462188A942D0
:1044F0007CD09119022919D0E388AB4278D0BB193E
:10450000032B13D0A389AB4274D079B1618AA9423D
:1045100071D0361D911918340329E7D106E05049AE
:1045200004222046FBF790FE10B1002003B0F0BD3E
:1045300020793138C6B24B4A975DC02070434A4952
:104540000C1817B3029602203946C71B0091494246
:104550000323019426463488AC421AD0CC18022C8E
:10456000E4D0F288AA4216D0FA18032ADED0B28923
:10457000AA4212D0002CD9D0728AAA420ED01B1D9A
:10458000CA181836032AE6D1D0E700230AE000262D
:1045900035E0DB1E02E09B1E00E05B1E029E019CDC
:1045A000304A009FD8B2B8422CD0781E9055C0B285
:1045B000C21A2546062462436343E818811DFBF7AF
:1045C000C9FD2A48805D604300242C52281844808D
:1045D000848027482449012340F2003204F0B2FAD3
:1045E000014620460029A1D022482DE0F61E02E017
:1045F000B61E00E0761E0299019A1C4B009CF0B298
:10460000A04202D1022003B0F0BD601E9854C5B292
:10461000AA1B06246243664388190E46811DFBF7D8
:1046200099FD6C430025355330194580858013482A
:104630001149012340F2003204F084FA0146284671
:10464000002900D172E70E480AF0C4FA6DE7C046AF
:104650004150505F5363656E655F5175697400002A
:10466000C6FB0008601900205C1E002028150020F1
:1046700000A80108CBFB00084C1B002000A4010887
:10468000EBFB0008F0B5C3B00D46044606F098FBFE
:10469000007801280BD106F035FC022801D105F085
:1046A000D1FA06F02FFC012801D106F065FB2E4659
:1046B0002F365B4F30463946FBF7A2FD002854D019
:1046C00039461E313046FBF79BFD002855D0394650
:1046D0003C313046FBF794FD002800D19DE039467F
:1046E0005A313046FBF78CFD002800D195E0394661
:1046F00078313046FBF784FD002800D18DE0394643
:1047000096313046FBF77CFD002800D185E0394624
:10471000B4313046FBF774FDB8B33946D231304678
:10472000FBF76EFDC8B33946F0313046FBF768FD44
:10473000D8B340F20E1039183046FBF761FD00285F
:104740006BD10021039102912D1D607801284CD17D
:1047500004AE30462946FFF759F8029608B102A97F
:10476000888060780121452240E0291D204643B021
:10477000F0BC04BC9646FDF775BB291D204643B02E
:10478000F0BC04BC9646FDF7A3BA291D204643B0F1
:10479000F0BC04BC9646FEF76FBE291D204643B010
:1047A000F0BC04BC9646FEF7B9BE002603960296FE
:1047B0001C480AF00FFA607801280BD1291D04ADBE
:1047C0002846FFF765FD02950126452118B102AA8A
:1047D000908000E0802120788006800F1DD100911C
:1047E00002AA02232046314615E0802203280AD17E
:1047F00004AE30462946FFF709F80296012145220A
:1048000008B102AB988020788006800F05D1009215
:1048100002AA0223204600F007F843B0F0BDC046CC
:104820006A01002039FA0008F0B5FFB0A6B01D46B5
:1048300016460F46044605A840F27411FBF7A3FC88
:10484000AA9B67B13068B1880022012600AF43C738
:10485000039205A920462A4603F04EFC04E005A970
:1048600020462A4603F0C1FEA2AE2046314603F0A0
:1048700047FD05AD2846314603F0E2FA62AC264614
:104880000836F8213046FBF77EFC0848639008485C
:1048900062902846314603F02FFA083081B2204654
:1048A00001F0D4F87FB026B0F0BDC0461B0A1B0A49
:1048B0001B1B1B1BF0B5CBB015460A4604460093E4
:1048C00005A821462B4603F0B1FE00284FD005462F
:1048D00005A8294601F0BAF826A12046FBF75EFCA0
:1048E00020B928A12046FBF759FC10B1001B000697
:1048F00036D149AE0020B0804990304607F06DFBBC
:1049000033787078B178F2783779767900900191C0
:1049100002920397049645AE10211EA2304609F07C
:1049200009FC20463146FBF739FCB0B949A80378A9
:1049300041788278C6780779407900910192029691
:104940000397049045AE102119A2304609F0F2FBFE
:1049500020463146FBF722FC30B1001B000603D095
:1049600005A8294601F030F901204BB0F0BD002028
:104970004BB0F0BD2E6666666666666666666666FF
:10498000660000002E464646464646464646464691
:10499000460000002E25303278253032782530321E
:1049A0007825303278253032782530327800000092
:1049B0002E253032582530325825303258253032A5
:1049C000582530325825303258000000F0B583B0F9
:1049D000054601780220F9B1022911D0012900D041
:1049E00082E00190A878062141436878C0224243C2
:1049F0005B4880184018011D0291871C59A419E0DA
:104A00000190A878222141434D48401801461231B7
:104A10000291871C4BA40DE00190A8780621414328
:104A20006878C02242434A4880184018011D02910C
:104A3000871C48A4A9880180297B3846FBF7A3FB83
:104A40002A7BA9683846FBF785FB286948B1297D90
:104A5000029E3046FBF797FB2A7D29693046FBF71B
:104A600079FBAB786A78A888009042A0214609F0CB
:104A700051FB494849A109F04DFB287B48B100266C
:104A8000494CB95D204609F045FB761C287B8642DF
:104A9000F7D30A200AF096F83F4844A109F03AFB00
:104AA000287D029F48B100263F4CB95D204609F0A1
:104AB00031FB761C287D8642F7D30A200AF082F863
:104AC0002878F0B1012811D0022826D13B481C4D8E
:104AD00040F220260124294640F22022234604F0F9
:104AE00031F8002801981ED003B0F0BD40F220221A
:104AF000E03236481A49012304F024F880B13448E2
:104B000009E040F22022E0322E481149012304F04E
:104B100019F828B12C480AF05DF8019803B0F0BDEF
:104B2000002003B0F0BDA919254840F220222346F9
:104B300004F008F8411E8841400003B0F0BDC046B3
:104B4000540F00204465766963655363656E6500A4
:104B50004C1B00206D795F63685F7363656E650051
:104B60005C1E00206D795F6C65645F7363656E65C4
:104B70000000000025735B25645D2E7363656E6520
:104B8000735B25645D2E7363656E655F69643A25AA
:104B90003034580A00000000FEF900082E6F7065DE
:104BA0006E5F7363656E650003FA00082E636C6FB9
:104BB00073655F7363656E65000000000090010817
:104BC0000094010800A40108EBFB000800A80108FC
:104BD000CBFB0008F0B588B006920390480802911C
:104BE000022900D28EE10321014000910190401E74
:104BF00003281AD20020079000980028019800D1BD
:104C000080E107984200039881184978835C1A462E
:104C1000303AD5B20A2D00D2E7E01A46413AD2B274
:104C2000062A00D3D8E0373BDEE007200299814313
:104C30000291002207920DE0373A144631016118C3
:104C40000498C170059A08320798001D07900298D1
:104C50009042D1D00398871879780592825C1346E8
:104C6000303BDDB20A2D0FD31346413BDBB2052B9F
:104C700001D8373A07E01346613BDBB2062B01D37C
:104C8000334601E0573A13460D46303DE8B20A2854
:104C90000FD308464138C0B2052801D8373907E09C
:104CA00008466138C0B2062801D3254601E05739CD
:104CB0000D46180128180699079A8854FC78BA7886
:104CC00011463039C8B20A280FD310464138C0B255
:104CD000062801D2373A07E010466138C0B20628EC
:104CE00001D3194601E0573A11462246303AD0B274
:104CF0000A280FD320464138C0B2062801D2373CDB
:104D000007E020466138C0B2062801D32A4601E0F8
:104D1000573C22460698079BC61808011018707069
:104D200078793C792546303DEBB20A2B0FD32346E8
:104D3000413BDBB2062B01D2373C07E02346613B07
:104D4000DBB2062B01D30D4601E0573C2546014658
:104D50003039CBB20A2B0FD301464139C9B20629EB
:104D600001D2373807E001466139C9B2062901D3BB
:104D7000114601E057380146280108180496B07022
:104D8000FA79BC792646303EF3B20A2B0FD320467F
:104D90004138C0B2062801D2373C07E020466138CE
:104DA000C0B2062801D32E4601E0573C26461446E1
:104DB000303CE3B20A2B00D240E71346413BDBB262
:104DC000062B00D238E71346613BDBB2062B01D33A
:104DD0000C4633E7573A30E71A46613AD2B2062A10
:104DE00001D3324601E0573B1A460B46303BD8B25E
:104DF0000A280FD308464138C0B2062801D23739F5
:104E000007E008466138C0B2062801D3234601E016
:104E100057390B46100118180699079C0855009839
:104E2000012801986ED00798451C6800039C211842
:104E30004978205C0446303CE6B20A2E0FD3044683
:104E4000413CE4B2062C01D2373807E00446613C0D
:104E5000E4B2062C01D3144601E0573804460E464E
:104E6000303EF0B20A280FD308464138C0B20628B7
:104E700001D2373907E008466138C0B2062801D3AD
:104E80001E4601E057390E46200130180699485554
:104E900000980228019835D00798821C5100039B86
:104EA000581840785B5C19463039CDB20A2D0FD3C3
:104EB00019464139C9B2062901D2373B07E01946E4
:104EC0006139C9B2062901D3214601E0573B194691
:104ED0000346303BDCB20A2C0FD30346413BDBB226
:104EE000062B01D2373807E00346613BDBB2062BC5
:104EF00001D3334601E057380346080118180699D4
:104F00008854019808B0F0BDF0B5FFB0A8B00D46C8
:104F10000390002705970497FCF73CFB02902E4670
:104F20002F369C4930460C46FBF76AF9002800D121
:104F30008AE021461E313046FBF762F9002872D024
:104F400021463C313046FBF75BF900286DD0214605
:104F50005A313046FBF754F9002868D021467831A1
:104F60003046FBF74DF9002863D021469631304694
:104F7000FBF746F900285ED02146B4313046FBF7F6
:104F80003FF9002859D02146D2313046FBF738F995
:104F9000002854D02146F0313046FBF731F9002883
:104FA0004FD040F20E1021183046FBF729F90028A7
:104FB00049D040F22C1021183046FBF721F9002887
:104FC00000D192E040F24A1021183046FBF718F960
:104FD000002800D19FE040F2681021183046FBF70E
:104FE0000FF9002800D1A9E040F2861021183046C0
:104FF000FBF706F9002800D1A5E040F2A410211823
:105000003046FBF7FDF8002800D1A4E040F2C210C2
:1050100021183046FBF7F4F80028039853D104A96F
:10502000FCF7E2FA4FE001270EE002270CE003272D
:105030000AE0042708E0052706E0062704E0072722
:1050400002E0082700E009270298808968B1022F52
:10505000039843D0012F39D0AFBB2A467FB028B088
:10506000F0BC02BC8E46FEF7C5B9039E30788006C0
:10507000800F28D106AC204640F27411FBF783F86C
:10508000022284233046214603F0AFFAA4AD304615
:10509000294603F035F92046294602F0D1FE64ADD9
:1050A0002E460836F8213046FBF76DF83D486590EE
:1050B0003D4864902046314602F01EFE083081B221
:1050C000284600F0C3FC7FB028B0F0BD2A467FB070
:1050D00028B0F0BC02BC8E46FEF74AB97FB028B0BB
:1050E000F0BC02BC8E46FEF76FBA00210791069114
:1050F000039C6078032802D100F050FB0121207846
:105100008006800FDFD18020009006AA022320466F
:10511000FFF78AFBD7E7224809F05CFD039948783E
:105120000328D0D140F26C100818017900687FB0D4
:1051300028B0F0BC04BC964600F04CBB04A9039810
:10514000FDF7F4FFBFE715487FB028B0F0BC02BC04
:105150008E4609F03FBD104809F03CFD039D68787C
:1051600001280BD106AC204600F0DAFB04940121A3
:10517000452228B1C01C04AB988001E000218022A8
:1051800028788006800F9ED1009204AA0223284628
:10519000BEE7C0466A01002028FA00080CFA0008A1
:1051A0005BFA00081B0A1B0A1B1B1B1BF0B581B016
:1051B00039490E88711C8AB2214B53439A0C05233E
:1051C0005343CF1AB9B2354A1288914201D11148DE
:1051D00005E0028840F2C2118A4205D90C4809F064
:1051E000F9FC002001B0F0BD7143284B5C18416808
:1051F00005462046FAF7AEFF03CDF200254B985046
:105200009818416024490F804460012001B0F0BD2E
:10521000D4F90008F0F90008204801881E4A1288D5
:10522000914201D100207047491C8AB2044B53437C
:105230009A0C05235343C91A018001207047C046C8
:10524000CDCC000015490988134A1288914201D13A
:1052500000207047CA000F4B9A5840F2C2134B43CC
:105260000A49C918026041600120704780B50748AB
:105270000749FAF788FF07482821FAF784FF06480C
:10528000002101800548018080BDC04658060020ED
:10529000CA080000240F00204E0F00204C0F0020F1
:1052A000F0B583B0417844292CD10179522928D115
:1052B000064640792338C1B207290DD8E122CA40F9
:1052C000D10709D00006840D2FA0005909F082FCF7
:1052D00035A00059012101703B4809F07BFC3B4D92
:1052E0003B49042201242846234603F02BFC0028D6
:1052F000304606D1281D37490E22234603F022FCF2
:105300003046417845291DD1017952291AD1417978
:10531000262925D0252917D0242913D140F26C1530
:105320004459A37862782178E678277964790096E1
:105330000197029428A40646204608F0EBFE715916
:10534000244812E003B0F0BD40F26C1140580178DF
:105350004078000240181F4988810DD001200CE0E0
:1053600040F26C1141581B48801D062203B0F0BC6E
:1053700008BC9E46FAF7EEBE002003B0F0BC02BCAB
:105380008E4600F02BBCC046ABF90008ABF9000814
:10539000ABF90008ABF90008ABF900087BF900088D
:1053A00068F9000893F90008D0260020D0260020D4
:1053B000D0260020D0260020D0260020D326002092
:1053C000D1260020D2260020C3F90008007C010865
:1053D000D02600200415002073656C664D61634182
:1053E0006464723A2530327825303278253032784C
:1053F0002530327825303278253032780D0A000099
:10540000F0B5FFB090B00D46044601AE00273780DE
:1054100032A840F27411FAF7B6FE22A83E21FAF73C
:10542000B2FE02A88021FAF7AEFE20462946324697
:1054300005F0C1FA01281FD101A8018860180830C1
:10544000691A083989B232AD2A4602F094FE0090FA
:105450002E8A12353C4602AF384629463246FAF7C4
:1054600079FEBC5522A8394602F07CF9009878B143
:105470001EA009F0AFFB26E014A109222046FAF78E
:10548000CDFE00BB14A009F0A5FB00F087F91AE0DF
:1054900022A84088CA2807D0C9280BD132A822A93F
:1054A0000023FCF71FFF0EE032A822A90023FFF71C
:1054B000E9F808E032AC22A900232046FFF724FDDA
:1054C0002046FFF7EDFE7FB010B0F0BD2F5F6661A4
:1054D00063746F72790000004D43555F44657669CF
:1054E00063655F466163746F72790000697352533C
:1054F0004944617461466C6167206973206E6F7402
:105500002055415050535F4F4B210000B0B50C4621
:10551000054608461146FAF736FE0A20E0711B21BF
:10552000A17160712171E170A17061702170083406
:105530002846214602F0E0FB083080B2B0BD0000F2
:1055400070B5FFB085B010A01AAB194634C834C18D
:1055500034C834C134C834C174C874C127AC002104
:105560000122204602F096FD1448A08001AD64227D
:1055700020462946FFF7CAFF0146284600F066FA92
:105580007FB005B070BDC046402E2F302F5F6363E3
:105590006F6D61630000000000000000000000006B
:1055A00000000000000000000000000000000000FB
:1055B0000000000000000000000000005226000073
:1055C000B0B5FAB031201C900E481B900E481A90CE
:1055D0001DAC204640F27411FAF7D5FD00210122DE
:1055E0001AAB204602F056FD0848A08001AD6422A7
:1055F00020462946FFF78AFF0146284600F026FA92
:105600007AB0B0BD2E2F332F4053453152250000C4
:1056100070B5FFB085B014A01AAC21462CC82CC1BF
:105620002CC82CC12CC82CC16CC86CC11BA009F0A3
:10563000D1FA27AD284640F27411FAF7A4FD0021F3
:1056400001222846234602F025FD1848A88001AC17
:10565000642228462146FFF759FF0146204600F004
:10566000F5F97FB005B070BD405345312E2F5F6D09
:105670006163000000000000000000000000000066
:10568000000000000000000000000000000000001A
:10569000000000000000000000000000656E74655E
:1056A00072204745545F4D414300000052240000E2
:1056B000F0B5FFB088B017A01DA902911CC81CC18D
:1056C0001CC81CC11CC81CC13CC83CC103AE012580
:1056D00035701DA009F07EFA2AAF00240322384657
:1056E0002146029B02F0D6FC1C48B8800094384644
:1056F00031462A462B4602F036FE04AC6422384678
:105700002146FFF703FF0146204600F09FF97FB0D6
:1057100008B0F0BD402E2F31312F310000000000C5
:105720000000000000000000000000000000000079
:105730000000000000000000000000000000000069
:105740000000000000000000656E74657220534583
:10575000545F5472616E73666572000052280000D7
:10576000B0B50120022104F049FB80B101240221DF
:10577000204604F039FB06480025294608F036FC8F
:10578000204604F0BBFAFFF747FD02480570B0BDA4
:10579000003801407A2800207047FEE780B508A055
:1057A00009F018FAFBF7F8FEFDF7C2FF01F0FEF969
:1057B00003F0F6FE642080BC02BC8E4604F028BADA
:1057C0004D43555F4465766963655F466163746FF9
:1057D000727900007047FFF76BBF000070B5154687
:1057E0000E4604463BA009F0F5F9042E23D0012E05
:1057F00011D086BB28B2002863D40026680404D5E3
:10580000012003F08FFEA055761CA8043BD4E804C9
:1058100040D4304670BD28B2002842D40026680427
:1058200004D5012003F0C4FEA055761CA80414D4AE
:10583000E804EED518E028B200283AD4002668041F
:1058400004D5012003F04CFFA055761CA8040FD40A
:10585000E804DED513E0002070BD022003F0A8FEAE
:10586000A055761CE804D4D5032003F0A1FE14E073
:10587000022003F035FFA055761CE804C9D50320AB
:1058800003F02EFF09E0022003F04CFEA055761C29
:10589000E804BED5032003F045FEA055761C304633
:1058A00070BD002003F084FE207001266804B8D487
:1058B000BCE7002003F014FF207001266804C0D468
:1058C000C4E7002003F02EFE20700126680497D460
:1058D0009BE7C0464D43555F4765745F436F6E66F7
:1058E00069670000F0B581B00090042914D1144616
:1058F00000260F25374603E06D1E761C102E0CD0B7
:105900002046E840C007F7D0F0B203F001FFF9B23B
:10591000009A50547F1CEFE70027F8B201B0F0BDA9
:1059200010B5044608A009F055F926206071092039
:1059300020712420E0702020A070012060700020E1
:105940002070062010BDC0464D43555F4765745F0B
:1059500056657200022A05D032B902460846114641
:1059600003F0DEBE03F09EBE7047022A05D03AB9AE
:1059700002460846114603F0D3BE012003F092BE52
:10598000704780B500F034F980BC02BC8E4600F050
:1059900055BE80B500F030F980BC02BC8E4600F0E8
:1059A00061BF80B500F02CF980BC02BC8E4601F0CE
:1059B00015B80000F0B581B00D4600900C480DA15F
:1059C00008F0A8FB4DB17F4E009F2C463978304639
:1059D00008F0A0FB7F1C641EF8D10A2009F0F2F841
:1059E0000098294601B0F0BC04BC964607F084BD7F
:1059F000FEF900084D43555F5075745F4465766944
:105A0000636573746174757300000000B0B503784A
:105A1000012B10D182B1012A0DD1427805460846EA
:105A20000C46114603F026FE69782046B0BC04BC43
:105A3000964603F06DBDB0BD427808461146B0BC35
:105A400004BC964603F06CBE05F098BA80B582B0EF
:105A50006A46118001901046FFF7A8FB02B080BD96
:105A6000F0B581B00D460446514852A108F052FBF2
:105A700000954DB1534E2746009D3978304608F0C9
:105A800049FB7F1C6D1EF8D10A2009F09BF8227893
:105A90000020062A6BD86178090209B2930001A59B
:105AA000EB189F4600F00CB800F044B800F05FB867
:105AB00000F05DB800F021B800F059B800F059B816
:105AC000E41C8DB2002963D40026680404D5A15DCE
:105AD000012003F0F7FC761CA80404D5A15D022088
